:100000000C9462000C948A000C948A000C948A0070
:100010000C948A000C948A000C948A000C948A0038
:100020000C948A000C948A000C948A000C948A0028
:100030000C948A000C948A000C948A000C948A0018
:100040000C942C050C948A000C948A000C948A0061
:100050000C948A000C948A000C948A000C948A00F8
:100060000C948A000C948A000000000024002700F1
:100070002A0000000000250028002B0000000000DE
:1000800023002600290004040404040404040202DA
:100090000202020203030303030301020408102007
:1000A0004080010204081020010204081020000012
:1000B0000008000201000003040700000000000027
:1000C00000000F0711241FBECFEFD8E0DEBFCDBF69
:1000D00011E0A0E0B1E0E2E6FFE002C005900D9281
:1000E000A836B107D9F722E0A8E6B1E001C01D9219
:1000F000A630B207E1F710E0C2E6D0E004C02197D5
:10010000FE010E94A907C136D107C9F70E947605F2
:100110000C94AF070C94000096E0899FD001112445
:10012000A158BE4F90967C936E935F9791E0919605
:100130009C939197E091EC01F091ED019091EB018E
:10014000992339F0309751F0811108C080919B01BB
:100150000994309719F05C968C91FACF0895CF925C
:10016000DF92EF92FF920F931F9396E0899FF00129
:100170001124E158FE4F11A2278D30A12130310505
:1001800051F178F02230310509F451C023303105A6
:1001900009F452C01F910F91FF90EF90DF90CF9024
:1001A00008956623B9F361E070E00E948C002FB7D8
:1001B000F89480917B0190917C01A0917D01B09198
:1001C0007E012FBF8093D7019093D801A093D901CE
:1001D000B093DA01DFCF9FB7F894C0907B01D09045
:1001E0007C01E0907D01F0907E019FBF0091D701DE
:1001F0001091D8012091D9013091DA01C01AD10AA9
:10020000E20AF30A0091E9011091EA0130E020E0EE
:100210000C151D052E053F0550F462E070E01F919E
:100220000F91FF90EF90DF90CF900C948C006111B4
:10023000B1CF63E070E0F3CF70E060E0F0CFAF9259
:10024000BF92CF92DF92EF92FF920F931F93CF93C3
:10025000DF936C017B018B01040F151FEB015E0125
:10026000AE18BF08C017D10759F06991D601ED91BA
:10027000FC910190F081E02DC6010995892B79F759
:10028000C501DF91CF911F910F91FF90EF90DF900B
:10029000CF90BF90AF900895833081F028F48130E3
:1002A00099F08230A9F008958730A9F08830C9F01C
:1002B0008430B1F4809180008F7D03C080918000F4
:1002C0008F7780938000089584B58F7784BD0895DB
:1002D00084B58F7DFBCF8091B0008F778093B00085
:1002E00008958091B0008F7DF9CFCF93DF93282FB1
:1002F00030E0F901E255FF4F8491F901E656FF4FD6
:10030000D491F901EA57FF4FC491CC23A1F0811198
:100310000E944C01EC2FF0E0EE0FFF1FE458FF4F5E
:10032000A591B491EC91ED2381E090E009F480E097
:10033000DF91CF91089580E090E0FACF862F0C9462
:1003400075011F93CF93DF93282F30E0F901E25519
:10035000FF4F8491F901E656FF4FD491F901EA5716
:10036000FF4FC491CC23A9F0162F81110E944C019C
:10037000EC2FF0E0EE0FFF1FEE58FF4FA591B49168
:100380008FB7F894EC91111108C0D095DE23DC935F
:100390008FBFDF91CF911F910895DE2BF8CF862F6D
:1003A000642F0C94A101CF93DF9390E0FC01E656FB
:1003B000FF4F24918A579F4FFC0184918823C9F0F5
:1003C00090E0880F991FFC01E859FF4FA591B49167
:1003D000FC01EE58FF4FC591D49161110DC09FB73C
:1003E000F8948C91209582238C93888128232883EC
:1003F0009FBFDF91CF910895623051F49FB7F89479
:100400003C91822F809583238C93E8812E2BEFCF14
:100410008FB7F894EC912E2B2C938FBFEACF862FB9
:10042000642F0C94D3016F927F928F929F92AF9220
:10043000BF92CF92DF92EF92FF920F931F93CF93D1
:10044000DF9381E08093EB018FB7F89440917B01BB
:1004500050917C0160917D0170917E018FBF8091F0
:10046000DB019091DC01A091DD01B091DE01481B20
:10047000590B6A0B7B0B8091E7019091E801B0E08A
:10048000A0E084179507A607B70708F01DC1C0E0D4
:100490008091E501C81760F4E091E101F091E2017B
:1004A000EC0FF11D62E080810E94D301CF5FF0CF9D
:1004B000712C812C912C540183948091E601781643
:1004C00008F05FC0072D10E0E091E301F091E40136
:1004D000E00FF11F61E080810E94D301E091E30110
:1004E000F091E401E00FF11F60E080810E94A10122
:1004F000D501C401072C04C0880F991FAA1FBB1F78
:100500000A94D2F76C017C01E094F094612C809104
:10051000E5016816F8F4C62DD0E0E091E101F09114
:10052000E201EC0FFD1F80810E9475012496CC0F23
:10053000DD1FC158DE4F892B41F4888199818C29B8
:100540009D29998388836394E2CF888199818E2144
:100550009F21F7CFE091E301F091E401E00FF11F5B
:1005600061E080810E94A1018091E3019091E4010A
:10057000080F191F60E0F80180810E94D301739475
:100580009CCFCFE7D1E0FE018FEF9FEF278D30A109
:10059000232B21F4148E968F858F11A2369621E09D
:1005A000EB3BF20799F7F12C96E0D92E8091E5010B
:1005B000F81608F050C0E12C0F2D10E0000F111FAD
:1005C00009571E4F2091E601E21608F042C0F801DB
:1005D000608171810E2C02C0769567950A94E2F7CE
:1005E000F29E900111242E0D311DEFE7F1E080E025
:1005F000458D568D2417350709F46AC08F5F3696EE
:100600008A30B1F760FF23C0EFE7F1E090E080E0CF
:10061000448D411117C0E091DF01F091E001E20F3C
:10062000F31F4081D89EF001D99EF00D1124E158AE
:10063000FE4F448F368F258F10A2178E61E00E94E7
:10064000AF0005C0019636968A30910509F7E3940C
:10065000B9CFF394ABCF80E099A19111892F269661
:10066000F1E0CB3BDF07C1F79FB7F89440917B01E6
:1006700050917C0160917D0170917E019FBF4093FC
:10068000DB015093DC016093DD017093DE01882370
:10069000D9F08091A0018823B9F080919E019091BA
:1006A0009F01019789F480919B01DF91CF911F9168
:1006B0000F91FF90EF90DF90CF90BF90AF909F9001
:1006C0008F907F906F9008951092EB0180E0EDCFB6
:1006D0006170B5CF3FB7F8948091690190916A013C
:1006E000A0916B01B0916C0126B5A89B05C02F3F6E
:1006F00019F00196A11DB11D3FBFBA2FA92F982F48
:100700008827BC01CD01620F711D811D911D42E042
:10071000660F771F881F991F4A95D1F708958F920A
:100720009F92AF92BF92CF92DF92EF92FF924B01D6
:100730005C010E946A036B017C010E946A036C19D0
:100740007D098E099F09683E734081059105A8F3D4
:1007500021E0821A9108A108B10888EEC80E83E052
:10076000D81EE11CF11C81149104A104B10429F7E5
:10077000FF90EF90DF90CF90BF90AF909F908F90C1
:100780000895089590E080E00895FC010190002014
:10079000E9F73197AF01481B590BBC018EEE91E090
:1007A0000C941F01CF93DF93EC0160E08E810E94D7
:1007B000A10161E08E810E94A10160E08E810E9412
:1007C000A1018BE891E00197F1F7DF91CF910895B6
:1007D000CF92DF92EF92FF920F931F93CF93DF930D
:1007E0006C017C0187E0E80EF11CD0E0C0E0062F30
:1007F00010E0B8010C2E02C0759567950A94E2F7D7
:100800006170F70181917F010E94A1012196C4309E
:10081000D10579F7C601DF91CF911F910F91FF901C
:10082000EF90DF90CF900C94D203CF92DF92EF92B3
:10083000FF920F931F93CF93DF93EC01F62E642F5B
:100840008C810E94A1018D818F3F19F060E00E9490
:10085000A1010F2D10E08F8584FF25C06E0187E078
:10086000C80ED11CF12CE12CB8010E2C02C07595DC
:1008700067950A94E2F76170F60181916F010E9419
:10088000A101FFEFEF1AFF0A88E0E816F10461F713
:10089000CE01DF91CF911F910F91FF90EF90DF90EC
:1008A000CF900C94D203B80184E0759567958A9532
:1008B000E1F7CE010E94E8036F2DCE01DF91CF91C9
:1008C0001F910F91FF90EF90DF90CF900C94E80371
:1008D00040E0682F8EEE91E00C94150481E00E94B8
:1008E00068048BE39FE10197F1F70895CF93DF93BD
:1008F000823029F49091FD0198609093FD018093DE
:1009000001021092020280E48093030280E180934E
:10091000040280E58093050261E08091F2010E946B
:10092000D3018091F3018F3F19F061E00E94D30160
:1009300061E08091F4010E94D301CEEED1E09E01EE
:100940002E5E31408091FD0184FD0BC084E090E07B
:1009500021962817390744F461E08E810E94D30163
:10096000EECF88E090E0F4CF8BE39DE00197F1F7C4
:1009700060E08091F2010E94A10160E08091F401A9
:100980000E94A1018091F3018F3F19F060E00E9465
:10099000A1018091FD0184FD34C063E08EEE91E001
:1009A0000E94E803CBE4D6E4CE010197F1F763E0BF
:1009B0008EEE91E00E94E8032197F1F763E08EEE5E
:1009C00091E00E94E80383E592E00197F1F762E08D
:1009D0008EEE91E00E94E8038091FD0180620E940A
:1009E000680484E08093FE018CE00E9468040E9409
:1009F0006E0482E08093FF0186E0DF91CF910C943A
:100A0000680480620E9468048BE496E40197F1F721
:100A10008091FD0180620E94680483E592E0019765
:100A2000F1F78091FD0180620E946804D5CF90911A
:100A30000102691710F06FEF690FE62FF0E0E25145
:100A4000FE4F9489890F80680C94680441E00E94ED
:100A5000150481E090E008951F920F920FB60F9257
:100A600011242F933F938F939F93AF93BF938091C4
:100A70007B0190917C01A0917D01B0917E0130912C
:100A8000680123E0230F2D3758F50196A11DB11DF4
:100A90002093680180937B0190937C01A0937D015A
:100AA000B0937E018091690190916A01A0916B01E0
:100AB000B0916C010196A11DB11D809369019093C5
:100AC0006A01A0936B01B0936C01BF91AF919F91AC
:100AD0008F913F912F910F900FBE0F901F901895FF
:100AE00026E8230F0296A11DB11DD2CFCF93DF932D
:100AF000CDB7DEB7A1970FB6F894DEBF0FBECDBF5E
:100B0000789484B5826084BD84B5816084BD85B5E8
:100B1000826085BD85B5816085BD80916E008160F4
:100B200080936E001092810080918100826080939A
:100B3000810080918100816080938100809180009C
:100B40008160809380008091B10084608093B100C7
:100B50008091B00081608093B00080917A008460C1
:100B600080937A0080917A00826080937A008091ED
:100B70007A00816080937A0080917A008068809307
:100B80007A001092C10082E00E94760460E080E06A
:100B90000E94170589E291E00E94C50360E08EE0A3
:100BA0000E94D30160E08FE00E94D30160E080E109
:100BB0000E94D30160ED77E080E090E00E948F0317
:100BC0008AE0482E512C612C712C90E0892E90E007
:100BD000992ECC24C394D12C3CE3A32EB12C8EE0CF
:100BE0000E94750181309105A1F490937A01809360
:100BF00079010E946E0460E080E00E94170581E3A5
:100C000091E00E94C50368EE73E080E090E00E94EE
:100C10008F038091790190917A01019749F5809134
:100C2000790190917A01019719F58FE00E94750181
:100C30008C010197A1F70E946E0460E080E00E94A1
:100C400017058DE391E00E94C50368EE73E080E034
:100C500090E00E948F0310927A0110927901109314
:100C600078010093770161E080E00E941705D7CFFB
:100C700080917701909178010197E1F5809177015A
:100C8000909178010197B1F50E9413028823B1F386
:100C900041E0682F8EEE91E00E941504809175016D
:100CA00090917601019690937601809375010E9450
:100CB00013028823E1F380917501909176010997E1
:100CC000E8F20E946E0460E080E00E9417058AE46A
:100CD00091E00E94C5036CE271E080E090E00E9428
:100CE0008F031092780110927701D0927401C09214
:100CF0007301C4CF80917301909174010197E1F465
:100D000080E10E9475018C010197B1F40E946E048C
:100D100060E080E00E94170582E591E00E94C50333
:100D2000109274011092730110937201009371017B
:100D3000B0927001A0926F01809171019091720147
:100D4000019709F051C000916F011091700101509D
:100D500011091093700100936F0161E08DE00E9412
:100D60001705980150E040E019A27E0181E2E80EEB
:100D7000F11CCA01B901A30192010E948707605DBD
:100D8000F70162937F01211531054105510589F76E
:100D9000309761F001900020E9F73197AF014E19CB
:100DA0005F09B7018EEE91E00E941F0168EE73E0CB
:100DB00080E090E00E948F03D0926E01C0926D019E
:100DC00080916F0190917001892BA1F410927201B2
:100DD000109271010E946E0460E080E00E9417058D
:100DE0008DE591E00E94C50380916D0190916E01A7
:100DF000019771F48FE00E947501019749F4809189
:100E00006F0190917001CC969093700180936F0167
:100E10008114910409F4E3CE0E940000E0CE109208
:100E2000F1011092F00181E291E09093EF01809343
:100E3000EE0188E08093F2018FEF8093F30189E067
:100E40008093F4018AE08093F5018BE08093F601B2
:100E50008CE08093F7018DE08093F8011092F90106
:100E60001092FA011092FB011092FC011092FD0108
:100E700081E00E9476041092810110928501109207
:100E800084011092860187E191E090938001809324
:100E90007F01EBE9F1E0108214821382158236960D
:100EA00081E0E73DF807B9F783E091E09093E20134
:100EB0008093E10180E091E09093E4018093E3016D
:100EC00084E08093E50183E08093E60187E091E090
:100ED0009093E0018093DF018AE090E09093E80135
:100EE0008093E70184EF91E09093EA018093E90118
:100EF0001092ED011092EC011092DB011092DC01D6
:100F00001092DD011092DE011092EB010895A1E232
:100F10001A2EAA1BBB1BFD010DC0AA1FBB1FEE1F73
:100F2000FF1FA217B307E407F50720F0A21BB30BBE
:100F3000E40BF50B661F771F881F991F1A9469F73A
:100F400060957095809590959B01AC01BD01CF0196
:100F50000895EE0FFF1F0590F491E02D0994F89489
:020F6000FFCFC1
:100F6200040506030201003132333435363738398D
:100F72002A3023000000000F02CF019E0100000072
:100F82000026051F01C203C10357454C434F4D457F
:100F920000494E5345525420434F494E00454E544A
:100FA2004552204E554D424552004441494C494E0E
:100FB2004700434F4E4E454354494E470043414C30
:080FC2004C20454E444544005B
:00000001FF
